{
  "contractName": "CertificateStore",
  "abi": [
    {
      "anonymous": false,
      "inputs": [
        {
          "indexed": true,
          "internalType": "uint256",
          "name": "certificateId",
          "type": "uint256"
        },
        {
          "indexed": false,
          "internalType": "string",
          "name": "studentName",
          "type": "string"
        },
        {
          "indexed": false,
          "internalType": "string",
          "name": "course",
          "type": "string"
        },
        {
          "indexed": false,
          "internalType": "string",
          "name": "issuingAuthority",
          "type": "string"
        },
        {
          "indexed": false,
          "internalType": "string",
          "name": "issueDate",
          "type": "string"
        },
        {
          "indexed": false,
          "internalType": "string",
          "name": "expiryDate",
          "type": "string"
        },
        {
          "indexed": false,
          "internalType": "string",
          "name": "certificateHash",
          "type": "string"
        }
      ],
      "name": "CertificateIssued",
      "type": "event"
    },
    {
      "inputs": [],
      "name": "certificateCount",
      "outputs": [
        {
          "internalType": "uint256",
          "name": "",
          "type": "uint256"
        }
      ],
      "stateMutability": "view",
      "type": "function",
      "constant": true
    },
    {
      "inputs": [
        {
          "internalType": "uint256",
          "name": "",
          "type": "uint256"
        }
      ],
      "name": "certificates",
      "outputs": [
        {
          "internalType": "string",
          "name": "studentName",
          "type": "string"
        },
        {
          "internalType": "string",
          "name": "course",
          "type": "string"
        },
        {
          "internalType": "string",
          "name": "issuingAuthority",
          "type": "string"
        },
        {
          "internalType": "string",
          "name": "issueDate",
          "type": "string"
        },
        {
          "internalType": "string",
          "name": "expiryDate",
          "type": "string"
        },
        {
          "internalType": "string",
          "name": "certificateHash",
          "type": "string"
        }
      ],
      "stateMutability": "view",
      "type": "function",
      "constant": true
    },
    {
      "inputs": [
        {
          "internalType": "string",
          "name": "_studentName",
          "type": "string"
        },
        {
          "internalType": "string",
          "name": "_course",
          "type": "string"
        },
        {
          "internalType": "string",
          "name": "_issuingAuthority",
          "type": "string"
        },
        {
          "internalType": "string",
          "name": "_issueDate",
          "type": "string"
        },
        {
          "internalType": "string",
          "name": "_expiryDate",
          "type": "string"
        },
        {
          "internalType": "string",
          "name": "_certificateHash",
          "type": "string"
        }
      ],
      "name": "issueCertificate",
      "outputs": [],
      "stateMutability": "nonpayable",
      "type": "function"
    },
    {
      "inputs": [
        {
          "internalType": "uint256",
          "name": "_certificateId",
          "type": "uint256"
        }
      ],
      "name": "getCertificate",
      "outputs": [
        {
          "internalType": "string",
          "name": "",
          "type": "string"
        },
        {
          "internalType": "string",
          "name": "",
          "type": "string"
        },
        {
          "internalType": "string",
          "name": "",
          "type": "string"
        },
        {
          "internalType": "string",
          "name": "",
          "type": "string"
        },
        {
          "internalType": "string",
          "name": "",
          "type": "string"
        },
        {
          "internalType": "string",
          "name": "",
          "type": "string"
        }
      ],
      "stateMutability": "view",
      "type": "function",
      "constant": true
    },
    {
      "inputs": [
        {
          "internalType": "uint256",
          "name": "_certificateId",
          "type": "uint256"
        },
        {
          "internalType": "string",
          "name": "_certificateHashToValidate",
          "type": "string"
        }
      ],
      "name": "validateCertificate",
      "outputs": [
        {
          "internalType": "bool",
          "name": "",
          "type": "bool"
        }
      ],
      "stateMutability": "view",
      "type": "function",
      "constant": true
    }
  ],
  "bytecode": "0x608060405234801561001057600080fd5b50611309806100206000396000f3fe608060405234801561001057600080fd5b50600436106100575760003560e01c806351640fee1461005c57806352d7b89c14610091578063663b3e22146100af57806394973c97146100e4578063b626992d14610100575b600080fd5b61007660048036038101906100719190610a23565b610130565b60405161008896959493929190610ae0565b60405180910390f35b6100996104c5565b6040516100a69190610b7a565b60405180910390f35b6100c960048036038101906100c49190610a23565b6104cb565b6040516100db96959493929190610ae0565b60405180910390f35b6100fe60048036038101906100f99190610cca565b610837565b005b61011a60048036038101906101159190610dff565b610967565b6040516101279190610e76565b60405180910390f35b6060806060806060806000806000898152602001908152602001600020905080600001816001018260020183600301846004018560050185805461017390610ec0565b80601f016020809104026020016040519081016040528092919081815260200182805461019f90610ec0565b80156101ec5780601f106101c1576101008083540402835291602001916101ec565b820191906000526020600020905b8154815290600101906020018083116101cf57829003601f168201915b505050505095508480546101ff90610ec0565b80601f016020809104026020016040519081016040528092919081815260200182805461022b90610ec0565b80156102785780601f1061024d57610100808354040283529160200191610278565b820191906000526020600020905b81548152906001019060200180831161025b57829003601f168201915b5050505050945083805461028b90610ec0565b80601f01602080910402602001604051908101604052809291908181526020018280546102b790610ec0565b80156103045780601f106102d957610100808354040283529160200191610304565b820191906000526020600020905b8154815290600101906020018083116102e757829003601f168201915b5050505050935082805461031790610ec0565b80601f016020809104026020016040519081016040528092919081815260200182805461034390610ec0565b80156103905780601f1061036557610100808354040283529160200191610390565b820191906000526020600020905b81548152906001019060200180831161037357829003601f168201915b505050505092508180546103a390610ec0565b80601f01602080910402602001604051908101604052809291908181526020018280546103cf90610ec0565b801561041c5780601f106103f15761010080835404028352916020019161041c565b820191906000526020600020905b8154815290600101906020018083116103ff57829003601f168201915b5050505050915080805461042f90610ec0565b80601f016020809104026020016040519081016040528092919081815260200182805461045b90610ec0565b80156104a85780601f1061047d576101008083540402835291602001916104a8565b820191906000526020600020905b81548152906001019060200180831161048b57829003601f168201915b505050505090509650965096509650965096505091939550919395565b60015481565b60006020528060005260406000206000915090508060000180546104ee90610ec0565b80601f016020809104026020016040519081016040528092919081815260200182805461051a90610ec0565b80156105675780601f1061053c57610100808354040283529160200191610567565b820191906000526020600020905b81548152906001019060200180831161054a57829003601f168201915b50505050509080600101805461057c90610ec0565b80601f01602080910402602001604051908101604052809291908181526020018280546105a890610ec0565b80156105f55780601f106105ca576101008083540402835291602001916105f5565b820191906000526020600020905b8154815290600101906020018083116105d857829003601f168201915b50505050509080600201805461060a90610ec0565b80601f016020809104026020016040519081016040528092919081815260200182805461063690610ec0565b80156106835780601f1061065857610100808354040283529160200191610683565b820191906000526020600020905b81548152906001019060200180831161066657829003601f168201915b50505050509080600301805461069890610ec0565b80601f01602080910402602001604051908101604052809291908181526020018280546106c490610ec0565b80156107115780601f106106e657610100808354040283529160200191610711565b820191906000526020600020905b8154815290600101906020018083116106f457829003601f168201915b50505050509080600401805461072690610ec0565b80601f016020809104026020016040519081016040528092919081815260200182805461075290610ec0565b801561079f5780601f106107745761010080835404028352916020019161079f565b820191906000526020600020905b81548152906001019060200180831161078257829003601f168201915b5050505050908060050180546107b490610ec0565b80601f01602080910402602001604051908101604052809291908181526020018280546107e090610ec0565b801561082d5780601f106108025761010080835404028352916020019161082d565b820191906000526020600020905b81548152906001019060200180831161081057829003601f168201915b5050505050905086565b6001600081548092919061084a90610f20565b9190505550600060015490506040518060c001604052808881526020018781526020018681526020018581526020018481526020018381525060008083815260200190815260200160002060008201518160000190816108aa9190611114565b5060208201518160010190816108c09190611114565b5060408201518160020190816108d69190611114565b5060608201518160030190816108ec9190611114565b5060808201518160040190816109029190611114565b5060a08201518160050190816109189190611114565b50905050807fecc3f93009f559e2923feef33f54dc7ef8129afe05d33200869f4e63374ac84b88888888888860405161095696959493929190610ae0565b60405180910390a250505050505050565b60008060008085815260200190815260200160002090508260405160200161098f9190611222565b60405160208183030381529060405280519060200120816005016040516020016109b991906112bc565b604051602081830303815290604052805190602001201491505092915050565b6000604051905090565b600080fd5b600080fd5b6000819050919050565b610a00816109ed565b8114610a0b57600080fd5b50565b600081359050610a1d816109f7565b92915050565b600060208284031215610a3957610a386109e3565b5b6000610a4784828501610a0e565b91505092915050565b600081519050919050565b600082825260208201905092915050565b60005b83811015610a8a578082015181840152602081019050610a6f565b60008484015250505050565b6000601f19601f8301169050919050565b6000610ab282610a50565b610abc8185610a5b565b9350610acc818560208601610a6c565b610ad581610a96565b840191505092915050565b600060c0820190508181036000830152610afa8189610aa7565b90508181036020830152610b0e8188610aa7565b90508181036040830152610b228187610aa7565b90508181036060830152610b368186610aa7565b90508181036080830152610b4a8185610aa7565b905081810360a0830152610b5e8184610aa7565b9050979650505050505050565b610b74816109ed565b82525050565b6000602082019050610b8f6000830184610b6b565b92915050565b600080fd5b600080fd5b7f4e487b7100000000000000000000000000000000000000000000000000000000600052604160045260246000fd5b610bd782610a96565b810181811067ffffffffffffffff82111715610bf657610bf5610b9f565b5b80604052505050565b6000610c096109d9565b9050610c158282610bce565b919050565b600067ffffffffffffffff821115610c3557610c34610b9f565b5b610c3e82610a96565b9050602081019050919050565b82818337600083830152505050565b6000610c6d610c6884610c1a565b610bff565b905082815260208101848484011115610c8957610c88610b9a565b5b610c94848285610c4b565b509392505050565b600082601f830112610cb157610cb0610b95565b5b8135610cc1848260208601610c5a565b91505092915050565b60008060008060008060c08789031215610ce757610ce66109e3565b5b600087013567ffffffffffffffff811115610d0557610d046109e8565b5b610d1189828a01610c9c565b965050602087013567ffffffffffffffff811115610d3257610d316109e8565b5b610d3e89828a01610c9c565b955050604087013567ffffffffffffffff811115610d5f57610d5e6109e8565b5b610d6b89828a01610c9c565b945050606087013567ffffffffffffffff811115610d8c57610d8b6109e8565b5b610d9889828a01610c9c565b935050608087013567ffffffffffffffff811115610db957610db86109e8565b5b610dc589828a01610c9c565b92505060a087013567ffffffffffffffff811115610de657610de56109e8565b5b610df289828a01610c9c565b9150509295509295509295565b60008060408385031215610e1657610e156109e3565b5b6000610e2485828601610a0e565b925050602083013567ffffffffffffffff811115610e4557610e446109e8565b5b610e5185828601610c9c565b9150509250929050565b60008115159050919050565b610e7081610e5b565b82525050565b6000602082019050610e8b6000830184610e67565b92915050565b7f4e487b7100000000000000000000000000000000000000000000000000000000600052602260045260246000fd5b60006002820490506001821680610ed857607f821691505b602082108103610eeb57610eea610e91565b5b50919050565b7f4e487b7100000000000000000000000000000000000000000000000000000000600052601160045260246000fd5b6000610f2b826109ed565b91507fffffffffffffffffffffffffffffffffffffffffffffffffffffffffffffffff8203610f5d57610f5c610ef1565b5b600182019050919050565b60008190508160005260206000209050919050565b60006020601f8301049050919050565b600082821b905092915050565b600060088302610fca7fffffffffffffffffffffffffffffffffffffffffffffffffffffffffffffffff82610f8d565b610fd48683610f8d565b95508019841693508086168417925050509392505050565b6000819050919050565b600061101161100c611007846109ed565b610fec565b6109ed565b9050919050565b6000819050919050565b61102b83610ff6565b61103f61103782611018565b848454610f9a565b825550505050565b600090565b611054611047565b61105f818484611022565b505050565b5b818110156110835761107860008261104c565b600181019050611065565b5050565b601f8211156110c85761109981610f68565b6110a284610f7d565b810160208510156110b1578190505b6110c56110bd85610f7d565b830182611064565b50505b505050565b600082821c905092915050565b60006110eb600019846008026110cd565b1980831691505092915050565b600061110483836110da565b9150826002028217905092915050565b61111d82610a50565b67ffffffffffffffff81111561113657611135610b9f565b5b6111408254610ec0565b61114b828285611087565b600060209050601f83116001811461117e576000841561116c578287015190505b61117685826110f8565b8655506111de565b601f19841661118c86610f68565b60005b828110156111b45784890151825560018201915060208501945060208101905061118f565b868310156111d157848901516111cd601f8916826110da565b8355505b6001600288020188555050505b505050505050565b600081905092915050565b60006111fc82610a50565b61120681856111e6565b9350611216818560208601610a6c565b80840191505092915050565b600061122e82846111f1565b915081905092915050565b6000815461124681610ec0565b61125081866111e6565b9450600182166000811461126b5760018114611280576112b3565b60ff19831686528115158202860193506112b3565b61128985610f68565b60005b838110156112ab5781548189015260018201915060208101905061128c565b838801955050505b50505092915050565b60006112c88284611239565b91508190509291505056fea2646970667358221220c51da8da6e0d8c22dea840365123aad7425234a2167c49f5d6b32e683d65cf8964736f6c63430008110033",
  "immutableReferences": {},
  "source": "// SPDX-License-Identifier: MIT\r\npragma solidity ^0.8.17;\r\n\r\ncontract CertificateStore {\r\n    struct Certificate {\r\n        string studentName;\r\n        string course;\r\n        string issuingAuthority;\r\n        string issueDate;\r\n        string expiryDate;\r\n        string certificateHash;\r\n    }\r\n\r\n    mapping(uint256 => Certificate) public certificates;\r\n    uint256 public certificateCount;\r\n\r\n    event CertificateIssued(uint256 indexed certificateId, string studentName, string course, string issuingAuthority, string issueDate, string expiryDate, string certificateHash);\r\n\r\n    function issueCertificate(\r\n        string memory _studentName,\r\n        string memory _course,\r\n        string memory _issuingAuthority,\r\n        string memory _issueDate,\r\n        string memory _expiryDate,\r\n        string memory _certificateHash\r\n    ) public {\r\n        certificateCount++;\r\n        uint256 certificateId = certificateCount;\r\n\r\n        certificates[certificateId] = Certificate({\r\n            studentName: _studentName,\r\n            course: _course,\r\n            issuingAuthority: _issuingAuthority,\r\n            issueDate: _issueDate,\r\n            expiryDate: _expiryDate,\r\n            certificateHash: _certificateHash\r\n        });\r\n\r\n        emit CertificateIssued(certificateId, _studentName, _course, _issuingAuthority, _issueDate, _expiryDate, _certificateHash);\r\n    }\r\n\r\n    function getCertificate(uint256 _certificateId)\r\n        public\r\n        view\r\n        returns (\r\n            string memory,\r\n            string memory,\r\n            string memory,\r\n            string memory,\r\n            string memory,\r\n            string memory\r\n        )\r\n    {\r\n        Certificate storage certificate = certificates[_certificateId];\r\n        return (\r\n            certificate.studentName,\r\n            certificate.course,\r\n            certificate.issuingAuthority,\r\n            certificate.issueDate,\r\n            certificate.expiryDate,\r\n            certificate.certificateHash\r\n        );\r\n    }\r\n\r\n    function validateCertificate(uint256 _certificateId, string memory _certificateHashToValidate) public view returns (bool) {\r\n        Certificate storage certificate = certificates[_certificateId];\r\n        return keccak256(abi.encodePacked(certificate.certificateHash)) == keccak256(abi.encodePacked(_certificateHashToValidate));\r\n    }\r\n}\r\n",
  "sourcePath": "D:\\Belpy\\certificateStore\\contracts\\CertificateStore.sol",
  "compiler": {
    "name": "solc",
    "version": "0.8.17+commit.8df45f5f.Emscripten.clang"
  },
  "schemaVersion": "3.4.16",
  "updatedAt": "2024-06-06T16:36:20.334Z",
  "networkType": "ethereum",
  "devdoc": {
    "kind": "dev",
    "methods": {},
    "version": 1
  },
  "userdoc": {
    "kind": "user",
    "methods": {},
    "version": 1
  }
}